{
  "contractName": "AccountValidator",
  "abi": [
    {
      "inputs": [],
      "payable": false,
      "stateMutability": "nonpayable",
      "type": "constructor"
    },
    {
      "constant": true,
      "inputs": [],
      "name": "test",
      "outputs": [
        {
          "name": "",
          "type": "string"
        }
      ],
      "payable": false,
      "stateMutability": "pure",
      "type": "function"
    },
    {
      "constant": true,
      "inputs": [
        {
          "name": "message",
          "type": "bytes"
        }
      ],
      "name": "getDigestBytes32",
      "outputs": [
        {
          "name": "",
          "type": "bytes32"
        }
      ],
      "payable": false,
      "stateMutability": "pure",
      "type": "function"
    },
    {
      "constant": true,
      "inputs": [
        {
          "name": "digest",
          "type": "bytes32"
        },
        {
          "name": "signature",
          "type": "bytes"
        }
      ],
      "name": "getAccount",
      "outputs": [
        {
          "name": "",
          "type": "address"
        }
      ],
      "payable": false,
      "stateMutability": "pure",
      "type": "function"
    },
    {
      "constant": true,
      "inputs": [
        {
          "name": "digest",
          "type": "bytes32"
        },
        {
          "name": "signature",
          "type": "bytes"
        },
        {
          "name": "account",
          "type": "address"
        }
      ],
      "name": "validateAccount",
      "outputs": [
        {
          "name": "",
          "type": "bool"
        }
      ],
      "payable": false,
      "stateMutability": "pure",
      "type": "function"
    }
  ],
  "bytecode": "0x608060405234801561001057600080fd5b50610608806100206000396000f300608060405260043610610062576000357c0100000000000000000000000000000000000000000000000000000000900463ffffffff16806303fa39ec146100675780635050a0101461011e578063b12d6574146101cd578063f8a8fd6d14610252575b600080fd5b34801561007357600080fd5b506100dc6004803603810190808035600019169060200190929190803590602001908201803590602001908080601f01602080910402602001604051908101604052809392919081815260200183838082843782019150505050505091929192905050506102e2565b604051808273ffffffffffffffffffffffffffffffffffffffff1673ffffffffffffffffffffffffffffffffffffffff16815260200191505060405180910390f35b34801561012a57600080fd5b506101b36004803603810190808035600019169060200190929190803590602001908201803590602001908080601f0160208091040260200160405190810160405280939291908181526020018383808284378201915050505050509192919290803573ffffffffffffffffffffffffffffffffffffffff1690602001909291905050506102f6565b604051808215151515815260200191505060405180910390f35b3480156101d957600080fd5b50610234600480360381019080803590602001908201803590602001908080601f0160208091040260200160405190810160405280939291908181526020018383808284378201915050505050509192919290505050610339565b60405180826000191660001916815260200191505060405180910390f35b34801561025e57600080fd5b506102676104a7565b6040518080602001828103825283818151815260200191508051906020019080838360005b838110156102a757808201518184015260208101905061028c565b50505050905090810190601f1680156102d45780820380516001836020036101000a031916815260200191505b509250505060405180910390f35b60006102ee83836104e4565b905092915050565b60008173ffffffffffffffffffffffffffffffffffffffff1661031985856102e2565b73ffffffffffffffffffffffffffffffffffffffff161490509392505050565b6000606060006040805190810160405280601c81526020017f19457468657265756d205369676e6564204d6573736167653a0a333200000000815250915081846040516020018083805190602001908083835b6020831015156103b1578051825260208201915060208101905060208303925061038c565b6001836020036101000a03801982511681845116808217855250505050505090500182805190602001908083835b60208310151561040457805182526020820191506020810190506020830392506103df565b6001836020036101000a038019825116818451168082178552505050505050905001925050506040516020818303038152906040526040518082805190602001908083835b60208310151561046e5780518252602082019150602081019050602083039250610449565b6001836020036101000a038019825116818451168082178552505050505050905001915050604051809103902090508092505050919050565b60606040805190810160405280601e81526020017f74686973206973206163636f756e742076616c696461746f72207630312e0000815250905090565b600080600080604185511415156104fe57600093506105d3565b6020850151925060408501519150606085015160001a9050601b8160ff16101561052957601b810190505b601b8160ff16141580156105415750601c8160ff1614155b1561054f57600093506105d3565b600186828585604051600081526020016040526040518085600019166000191681526020018460ff1660ff1681526020018360001916600019168152602001826000191660001916815260200194505050505060206040516020810390808403906000865af11580156105c6573d6000803e3d6000fd5b5050506020604051035193505b505050929150505600a165627a7a72305820f8cdc3c1a74c9dea611671ba6ac05573c84ab0ef3d67880745c7a2323426186f0029",
  "source": "pragma solidity ^0.4.24;\n\nimport \"zeppelin-solidity/contracts/ECRecovery.sol\";\n\ncontract AccountValidator {\n\n    constructor() public {\n    }\n\n    function test() external pure returns(string){\n        return \"this is account validator v01.\";\n    }\n\n    function getDigestBytes32(bytes message) public pure returns(bytes32) {\n        bytes memory prefix = \"\\x19Ethereum Signed Message:\\n32\";\n        bytes32 prefixedDigest = keccak256(abi.encodePacked(prefix, message));\n        return prefixedDigest;\n    }\n\n    // function getDigest(bytes message) public pure returns(bytes32) {\n    //     bytes memory prefix = \"\\x19Ethereum Signed Message:\\n\"+uint2str(message.length);\n    //     bytes32 prefixedDigest = keccak256(abi.encodePacked(prefix, message));\n    //     return prefixedDigest;\n    // }\n\n    // function getAccount(string msg, bytes signature) public pure returns(address) {\n\n    // }\n\n    function getAccount(bytes32 digest, bytes signature) public pure returns (address) {\n        return ECRecovery.recover(digest, signature);\n    }\n\n    function validateAccount(bytes32 digest, bytes signature, address account) public pure returns (bool) {\n        return getAccount(digest, signature) == account;\n    }\n\n    function uint2str(uint i) internal pure returns(string){\n        if (i == 0) return \"0\";\n        uint j = i;\n        uint length;\n        while (j != 0){\n            length++;\n            j /= 10;\n        }\n        bytes memory bstr = new bytes(length);\n        uint k = length - 1;\n        uint l = i;\n        while (l != 0){\n            bstr[k--] = byte(48 + l % 10);\n            l /= 10;\n        }\n        return string(bstr);\n    }\n\n}",
  "sourcePath": "/Users/kao/Shared/c4j/inspect-ethereum/contracts/AccountValidator.sol",
  "compiler": {
    "name": "solc",
    "version": "0.4.24+commit.e67f0147.Emscripten.clang"
  },
  "schemaVersion": "2.0.1",
  "updatedAt": "2018-06-29T04:04:31.847Z"
}